:020000040800F2
:100000007807002059020008F50F0008A30F000828
:10001000F10F000865030008C1110008000000008E
:10002000000000000000000000000000FB0F0008BE
:100030006903000800000000F90F00080310000821
:1000400073020008730200087302000873020008BC
:1000500073020008730200087302000873020008AC
:10006000730200087302000873020008730200089C
:10007000730200087302000873020008730200088C
:10008000730200087302000873020008730200087C
:10009000730200087302000873020008730200086C
:1000A000730200087302000873020008730200085C
:1000B000730200087302000873020008730200084C
:1000C000730200087302000873020008730200083C
:1000D000730200087302000873020008730200082C
:1000E000730200087302000873020008730200081C
:1000F000730200087302000873020008730200080C
:1001000073020008730200087302000873020008FB
:10011000730200087302000873020008D910000877
:1001200073020008730200087302000873020008DB
:1001300073020008730200087302000873020008CB
:1001400073020008730200087302000873020008BB
:1001500073020008730200087302000873020008AB
:10016000730200087302000873020008730200089B
:100170007302000873020008730200080000000008
:100180007302000873020008DFF810D000F0D8F8FE
:10019000004800471B120008AFF3008078070020DA
:1001A0002A4B19680868B0E8F04F80F30988BFF35C
:1001B0006F8F4FF0000080F311887047000000003F
:1001C00006480068006880F3088862B661B6BFF32D
:1001D0004F8FBFF36F8F00DF00BF00BF08ED00E05F
:1001E000DFF80C00016841F470010160704700BF46
:1001F00088ED00E0EFF30980BFF36F8F134B1A68AF
:100200001EF0100F08BF20ED108A20E9F04F10609B
:1002100008B44FF0500080F31188BFF34F8FBFF345
:100220006F8F01F03DF84FF0000080F3118808BC9B
:1002300019680868B0E8F04F1EF0100F08BFB0EC66
:10024000108A80F30988BFF36F8F70471000002079
:10025000EFF30580704700000648804706480047D6
:10026000FEE7FEE7FEE7FEE7FEE7FEE7FEE7FEE766
:10027000FEE7FEE7C5100008890100082DE9F05FE0
:100280000546002092469B46884606468146402405
:100290001BE0284641464746224600F041F85346B7
:1002A0005A46C01A914110D311461846224600F012
:1002B00028F82D1A67EB01084F462246012000213D
:1002C00000F01FF817EB00094E41201EA4F10104B5
:1002D000DFDC484631462A464346BDE8F09FD2B2AD
:1002E00001E000F8012B491EFBD270470022F6E71F
:1002F00010B513460A4604461946FFF7F0FF20469C
:1003000010BD202A04DB203A00FA02F100207047D9
:100310009140C2F1200320FA03F319439040704743
:10032000202A04DB203A21FA02F00021704721FA4A
:1003300002F3D040C2F120029140084319467047B1
:10034000064C074D06E0E06840F0010394E8070022
:1003500098471034AC42F6D3FFF71AFF6814000830
:100360008814000800BFFEE710B5FFF743FF10BD7B
:1003700072B600BFFEE70000014800687047000049
:100380000000002003480068034909780844014937
:1003900008607047000000200800002010B50D48DC
:1003A000006840F400700B4908600846006840F49B
:1003B000806008600846006840F480700860032090
:1003C00000F0D6F80F2000F007F800F05FF80020EA
:1003D00010BD0000003C02402DE9F04188B0044609
:1003E0000027B84600BF002001902348006840F075
:1003F0002000214908600846006800F020000190B4
:1004000000BF00BF02A903A800F088F9069F1FB92A
:1004100000F0ACF9054602E000F0A8F945001748E5
:10042000B5FBF0F0A0F1010815481649086040F24C
:10043000E7311448C160C0F8048000210161816087
:10044000816100F04BFC064696B90E4800F07AFC3C
:1004500006466EB9372000F03DF8102C07D2002276
:100460002146372000F046F80748046000E00126E6
:10047000304608B0BDE8F0814038024040420F00ED
:10048000001400404C0000200400002008B500BF0C
:10049000002000900E48006840F480400C4908603D
:1004A0000846006800F48040009000BF00BF00BF15
:1004B00000200090081F006840F08050091F08606D
:1004C0000846006800F08050009000BF00BF08BDE3
:1004D0004438024001460846002809DB00F01F03AB
:1004E00001229A4043099B0003F1E023C3F8002155
:1004F00000BF70472DE9F05F80460D461646002785
:1005000000F060FE074639462A46334601F00700F0
:10051000C0F1070ABAF1040F02D94FF0040A01E052
:10052000C0F1070AD14600F1040ABAF1070F02D25E
:100530004FF0000A01E0A0F1030AD4464FF0010A8F
:100540000AFA09FAAAF1010A0AEA020A0AFA0CFAF4
:100550004FF0010B0BFA0CFBABF1010B0BEA030B99
:100560004AEA0B042146404600F034FEBDE8F09F05
:1005700000BF00F00702064B19684FF6FF03194051
:10058000044B0B4343EA0221014B196000BF704743
:100590000CED00E00000FA0570B504460D460CB9FC
:1005A000012070BD5848006800F00700A84209D239
:1005B00055490D700846006800F00700A84201D0B8
:1005C0000120EEE7207800F0020002281DD12078FB
:1005D00000F00400042805D14C48006840F4E050C5
:1005E0004A490860207800F00800082805D14748EB
:1005F000006840F46040454908604448006820F0C5
:10060000F000A168084341490860207800F001002B
:10061000A8B36068012807D13C4808380068C0F3D7
:100620004040B8B90120BCE76068022802D0606889
:10063000032807D1354808380068C0F3406048B93E
:100640000120AEE7314808380068C0F3400008B91F
:100650000120A6E72D48006820F0030061680843E8
:100660002A490860FFF788FE064609E0FFF784FE86
:10067000801B41F28831884202D9032091E707E0CC
:100680002248006800F00C006168B0EB810FEDD1EA
:100690001D48006800F00700A84209D91A490D70EA
:1006A0000846006800F00700A84201D0012078E762
:1006B000207800F00400042807D11448006820F4D2
:1006C000E050E168084311490860207800F0080014
:1006D000082808D10D48006820F46040216940EAEC
:1006E000C1000A49086000F051F808490968C1F3DF
:1006F0000311074A515CC840064908600648006873
:10070000FFF76AFE00204CE7003C02400838024038
:10071000501400080C000020040000200F2202608A
:100720000D4A126802F0030242600B4A126802F09E
:10073000F0028260084A126802F4E052C260064A7F
:10074000126802F46042D2080261044A126802F0A0
:1007500007020A607047000008380240003C02406F
:1007600001480068704700000C00002000B5FFF74A
:10077000F7FF04490968C1F38221034A515CC8406C
:1007800000BD000008380240601400082DE9F04761
:10079000002400250026A1462548006800F00C0032
:1007A00020B1042805D008283AD105E0DFF884906C
:1007B00039E0DFF8849036E01D48001F006800F043
:1007C0003F041B48001F006800F4800078B11A48FD
:1007D0001749091F0968C1F38811A0FB0170014680
:1007E000224600233846FFF749FD05460EE0114832
:1007F0000F49091F0968C1F38811A0FB0170014668
:10080000224600233846FFF739FD05460848001FF9
:100810000068C0F30140401C4600B5FBF6F902E059
:10082000DFF8109000BF00BF4846BDE8F087000029
:10083000083802400024F40040787D01F8B50446F1
:100840000CB90120F8BD207800F00100002874D018
:10085000F948006800F00C0004280DD0F648006844
:1008600000F00C00082813D1F348001F006800F4C2
:100870008000B0F5800F0BD1EF4808380068C0F356
:100880004040002859D06068002856D10120D9E79F
:1008900000BF6068B0F5803F08D1E74808380068BD
:1008A00040F48030E449083908601EE06068B0F523
:1008B000A02F0DD1E0480838006840F48020DE49C0
:1008C000083908600846006840F4803008600CE091
:1008D000D9480838006820F48030D74908390860C2
:1008E0000846006820F48020086000BF606890B16E
:1008F000FFF742FD054606E0FFF73EFD401B64287A
:1009000001D903209EE7CC4808380068C0F3404076
:100910000028F1D011E0FFF72FFD054606E0FFF7B4
:100920002BFD401B642801D903208BE7C2480838FF
:100930000068C0F340400028F1D1207800F00200A8
:1009400002285FD1BC48006800F00C0058B1BA48DA
:10095000006800F00C0008281CD1B748001F006890
:1009600000F48000B0B9B44808380068C0F3400013
:1009700020B1E068012801D0012063E7AE480838C3
:10098000006820F0F800216940EAC100AA4908394E
:10099000086037E0E06800B30120A8490860FFF76D
:1009A000EBFC054606E0FFF7E7FC401B022801D9F7
:1009B000032047E7A04808380068C0F3400000283B
:1009C000F1D09D480838006820F0F800216940EA1D
:1009D000C10099490839086014E00020974908606F
:1009E000FFF7CAFC054606E0FFF7C6FC401B0228DD
:1009F00001D9032026E7904808380068C0F340007A
:100A00000028F1D1207800F0080008282CD1606976
:100A1000A8B101208A490860FFF7AEFC054606E050
:100A2000FFF7AAFC401B022801D903200AE78248ED
:100A30006C300068C0F340000028F1D014E00020C2
:100A40007F490860FFF798FC054606E0FFF794FC35
:100A5000401B022801D90320F4E677486C30006877
:100A6000C0F340000028F1D1207800F004000428F1
:100A700070D1002770483830006800F0805090B97D
:100A800000BF002000906C483830006840F0805073
:100A90006949383108600846006800F080500090CD
:100AA00000BF00BF01276748006800F48070B0B93C
:100AB0006448006840F4807062490860FFF75CFC9D
:100AC000054606E0FFF758FC401B022801D9032029
:100AD000B8E65C48006800F480700028F2D000BFDF
:100AE000A068012808D154486830006840F001002F
:100AF0005149683108601DE0A06805280DD14E48B5
:100B00006830006840F004004B49683108600846CE
:100B1000006840F0010008600CE047486830006859
:100B200020F001004449683108600846006820F060
:100B30000400086000BFA068A8B1FFF71DFC0546CF
:100B400009E0FFF719FC401B41F28831884202D9C5
:100B5000032077E626E0384868300068C0F340009C
:100B60000028EED013E0FFF707FC054608E0FFF78A
:100B700003FC401B41F28831884201D9032061E621
:100B80002D4868300068C0F340000028EFD1012FE5
:100B900007D129483830006820F080502649383184
:100BA000086000BFA069002845D02348006800F015
:100BB0000C0008285DD0A069022845D100201F49FB
:100BC0000866FFF7D9FB054606E0FFF7D5FB401B9B
:100BD000022801D9032035E6174808380068C0F319
:100BE00040600028F1D1D4E907010843616A40EA76
:100BF00081110122A06AC2EB500041EA00412C2081
:100C0000005D41EA00600C49091F086001200B49A2
:100C10000866FFF7B1FB054606E0FFF7ADFB401B9A
:100C2000022801D903200DE6034808380068C0F304
:100C300040600028F1D049E00838024000004742F7
:100C4000800E474200700040002021490866FFF7EF
:100C500093FB054606E0FFF78FFB401B022801D9F6
:100C60000320EFE51B480068C0F340600028F2D184
:100C70002CE0A069012800D1E4E51648001D0668B3
:100C8000A069012820D006F48001E06981421BD1CF
:100C900006F03F01206A814216D147F6C07030400D
:100CA000616AB0EB811F0FD106F440310122A06AC6
:100CB000C2EB5000B1EB004F06D106F070612C2062
:100CC000005DB1EB006F01D00120BBE50020B9E56C
:100CD00000004742003802407047704710B5044694
:100CE0000CB9012010BD94F83D0028B9002084F80B
:100CF0003C00204600F025F8022084F83D00211D2C
:100D0000206800F0F1F9012084F8460000BF84F863
:100D10003E0001213F200155402001554120015551
:100D200000BF00BF012084F8420043200155442049
:100D300001554520015500BF012084F83D000020E9
:100D4000D0E77047014691F83D00012801D001200D
:100D50007047022081F83D000868C06840F001003B
:100D60000B68D8601A4B086898421BD00868B0F12D
:100D7000804F17D0174B0868984213D0164B08685D
:100D800098420FD0154B086898420BD0144B086856
:100D9000984207D0134B0868984203D0124B08685A
:100DA00098420CD10868806800F00702062A0CD02F
:100DB0000868006840F001000B68186005E00868EA
:100DC000006840F001000B6818600020C0E70000D8
:100DD000000001400004004000080040000C0040FA
:100DE000000401400040014000180040704710B569
:100DF000044620680069C0F34000D8B12068C0688C
:100E0000C0F34000B0B16FF002002168086101201A
:100E100020772068806900F0030018B12046FFF7B2
:100E2000E5FF05E0204600F0ADF8204600F0ABF805
:100E30000020207720680069C0F38000D8B12068C6
:100E4000C068C0F38000B0B16FF004002168086191
:100E5000022020772068806900F4407018B1204695
:100E6000FFF7C4FF05E0204600F08CF8204600F0B4
:100E70008AF80020207720680069C0F3C000D8B14C
:100E80002068C068C0F3C000B0B16FF008002168EE
:100E90000861042020772068C06900F0030018B1C1
:100EA0002046FFF7A3FF05E0204600F06BF8204640
:100EB00000F069F80020207720680069C0F3001076
:100EC000D8B12068C068C0F30010B0B16FF0100056
:100ED00021680861082020772068C06900F440700C
:100EE00018B12046FFF782FF05E0204600F04AF8DF
:100EF000204600F048F8002020772068006900F0C4
:100F0000010058B12068C06800F0010030B16FF0F6
:100F1000010021680861204600F036F82068006969
:100F2000C0F3C01058B12068C068C0F3C01030B121
:100F30006FF08000216808612046FFF7CDFE206831
:100F40000069C0F3801058B12068C068C0F38010F9
:100F500030B16FF0400021680861204600F020F8B1
:100F600020680069C0F3401058B12068C068C0F321
:100F7000401030B16FF02000216808612046FFF773
:100F8000ACFE10BD7047704710B504460349206899
:100F9000884201D1FFF7F6F910BD000000140040AF
:100FA000704700BFFEE7000008B500BF00200090BA
:100FB0000E48006840F080000C4908600846006850
:100FC00000F08000009000BF00BF00BF0020009034
:100FD0000846006840F0010008600846006800F01C
:100FE0000100009000BF00BF08BD00003038024083
:100FF00000BFFEE700BFFEE7704710B5FFF7D0F86F
:1010000010BD10B500F07CF910BD000000B593B024
:10101000302107A8FFF76AF9142102A8FFF766F943
:1010200000BF002001902548006840F0805023490F
:1010300008600846006800F08050019000BF00BFC3
:1010400000BF002001901E48006840F480401C4909
:1010500008600846006800F48040019000BF00BFAF
:101060000220079001200A9010200B9002200D9082
:1010700000210E9108210F91A821109102211191B8
:101080000421129107A8FFF7D9FB08B1FFF770F907
:101090000F20029002200390002004904FF4A050F3
:1010A00005904FF480500690052102A8FFF774FACE
:1010B00008B1FFF75DF913B000BD000040380240F1
:1010C000007000400348006840F470000149086067
:1010D0007047000088ED00E010B50248FFF787FE7A
:1010E00010BD00004C00002010B50268294B98424A
:1010F0000ED0B0F1804F0BD0274B984208D0274B31
:10110000984205D0264B984202D0264B984203D1F4
:1011100022F070024B681A431E4B984220D0B0F167
:10112000804F1DD01C4B98421AD01C4B984217D0B0
:101130001B4B984214D01B4B984211D01A4B98422B
:101140000ED01A4B98420BD0194B984208D0194B2D
:10115000984205D0184B984202D0184B984203D1C0
:1011600022F44072CB681A4322F080034C6943EAB0
:10117000040202608B68C3620B688362054B98426D
:1011800002D0084B984201D10B69036301234361EC
:1011900010BD0000000001400004004000080040B5
:1011A000000C0040000401400040014000440140A8
:1011B0000048014000180040001C00400020004092
:1011C00000BFFEE702480068C0F30220704700003D
:1011D0000CED00E010B5002804DB0A07130E054AE9
:1011E000135406E00A07140E034A00F00F031B1FF6
:1011F000D45410BD00E400E018ED00E002E008C89F
:10120000121F08C1002AFAD170477047002001E080
:1012100001C1121F002AFBD17047FFF7BFF8FFF78B
:10122000F5FEFFF7C1FE00BFFEE700000A490968AE
:10123000096809B9012100E0002121B14FF0FF3117
:10124000064A116006E004490968C968C868034A8B
:101250004168116070470000140000204000002029
:1012600001460A69D1E901309860D1E9010358606B
:101270005068884201D18868506000200861106879
:10128000401E10601068704742684A6093688B6027
:10129000936859609160086103685B1C0360704744
:1012A0001248006818B10120114908601DE00020B3
:1012B0000F4908600F480068B0FA80F0C0F11F01C4
:1012C00001EB81020C4B03EB8200426852684260E2
:1012D00000F108024368934202D1426852684260BA
:1012E0004268D268054B1A6000BF70474800002072
:1012F000340000202800002094000020100000206E
:1013000010B500BF502080F31188BFF34F8FBFF39B
:101310006F8F00BF00F00EF818B14FF080500449F5
:10132000086000BF002080F3118800BF10BD0000DE
:1013300004ED00E02DE9F04100273A48006800285C
:1013400063D139480068451C374805608DB9374876
:10135000D0F8008036480068344908603448C0F846
:10136000008034480068401C32490860FFF75EFF87
:1013700000BF3148006885423BD300BF2B4800685E
:10138000006808B9012000E0002020B14FF0FF30D4
:10139000294908602CE025480068C068C468666870
:1013A000B54202D22448066022E0201DFFF758FF14
:1013B000A06A18B104F11800FFF752FF94F82C103E
:1013C000012088401D49096808431C490860E16AFA
:1013D00001EB81011A4A02EB8100211DFFF754FF46
:1013E0001849E06A0968C96A8842C7D30127C5E776
:1013F00000BF14480068C06A00EB8000104951F833
:101400002000012800D9012704E00F480068401C93
:101410000D4908600D48006800B101273846BDE855
:10142000F08100004800002024000020140000206B
:101430001800002038000020400000202800002074
:101440009400002010000020300000203400002014
:101450000000000000000000010203040607080964
:1014600000000000010203048814000800000020AE
:101470004C000000FC110008D41400084C000020AF
:101480002C0700000C1200080000000010000000F3
:10149000010000000024F400000000000000000033
:1014A000000000000000000000000000000000003C
:1014B000000000000000000000000000000000002C
:1014C000000000000000000000000000000000001C
:0414D0000000000018
:040000050800018965
:00000001FF
